{
  "contractName": "Bank",
  "abi": [
    {
      "inputs": [],
      "name": "getBalance",
      "outputs": [
        {
          "internalType": "uint256",
          "name": "balance",
          "type": "uint256"
        }
      ],
      "stateMutability": "view",
      "type": "function"
    },
    {
      "inputs": [],
      "name": "addToBalance",
      "outputs": [],
      "stateMutability": "payable",
      "type": "function"
    },
    {
      "inputs": [],
      "name": "withdrawBalance",
      "outputs": [],
      "stateMutability": "nonpayable",
      "type": "function"
    }
  ],
  "bytecode": "0x608060405234801561001057600080fd5b50610519806100206000396000f3fe6080604052600436106100345760003560e01c806312065fe0146100395780635fd8c71014610064578063c0e317fb1461007b575b600080fd5b34801561004557600080fd5b5061004e610085565b6040518082815260200191505060405180910390f35b34801561007057600080fd5b506100796100cc565b005b610083610354565b005b6000600160003373ffffffffffffffffffffffffffffffffffffffff1673ffffffffffffffffffffffffffffffffffffffff16815260200190815260200160002054905090565b60008054906101000a900460ff1615801561012657506000600160003373ffffffffffffffffffffffffffffffffffffffff1673ffffffffffffffffffffffffffffffffffffffff16815260200190815260200160002054115b610198576040517f08c379a000000000000000000000000000000000000000000000000000000000815260040180806020018281038252601c8152602001807f596f752063616e2774207769727468647261772042616c616e63652e0000000081525060200191505060405180910390fd5b60016000806101000a81548160ff0219169083151502179055506000600160003373ffffffffffffffffffffffffffffffffffffffff1673ffffffffffffffffffffffffffffffffffffffff1681526020019081526020016000208190555060003373ffffffffffffffffffffffffffffffffffffffff16600160003373ffffffffffffffffffffffffffffffffffffffff1673ffffffffffffffffffffffffffffffffffffffff1681526020019081526020016000205460405180807f5769746864726177207374617274656400000000000000000000000000000000815250601001905060006040518083038185875af1925050503d80600081146102bb576040519150601f19603f3d011682016040523d82523d6000602084013e6102c0565b606091505b5050905080610337576040517f08c379a00000000000000000000000000000000000000000000000000000000081526004018080602001828103825260108152602001807f5472616e73666572206661696c65642e0000000000000000000000000000000081525060200191505060405180910390fd5b60008060006101000a81548160ff02191690831515021790555050565b60008054906101000a900460ff161580156103ee5750600160003373ffffffffffffffffffffffffffffffffffffffff1673ffffffffffffffffffffffffffffffffffffffff1681526020019081526020016000205434600160003373ffffffffffffffffffffffffffffffffffffffff1673ffffffffffffffffffffffffffffffffffffffff1681526020019081526020016000205401115b610460576040517f08c379a00000000000000000000000000000000000000000000000000000000081526004018080602001828103825260168152602001807f596f752063616e2774206164642062616c616e63652e0000000000000000000081525060200191505060405180910390fd5b60016000806101000a81548160ff02191690831515021790555034600160003373ffffffffffffffffffffffffffffffffffffffff1673ffffffffffffffffffffffffffffffffffffffff1681526020019081526020016000206000828254019250508190555060008060006101000a81548160ff02191690831515021790555056fea2646970667358221220ea6f6bc81f4ea0b0f57ffecb14881d419852c26b71602e27b4ce1cdfed2a260364736f6c63430007000033",
  "immutableReferences": {},
  "source": "//SPDX-License-Identifier: MIT\n//solhint-disable-next-line\npragma solidity 0.7.0;\n/**\n* @title Bank Smart Contract\n*\n* @dev @notice This contract allows :\n*               1. Get balance\n*               2. Add balance into user account\n*               3. Withdraw ALL balance from usr account\n*\n* @author Shradha Rajmane\n*\n*/\n\ncontract Bank {\n\n/// @dev Lock userBalance to avoid concurrunt execution.\nbool private _mutex;\n/// @dev Protect Bank user balance from other contracts.\nmapping (address => uint256) private userBalance;  \n\n    \n/// @notice Get balance\n/// @return balance The balance of the user\nfunction getBalance() public view returns(uint256 balance){\nreturn userBalance[msg.sender];\n}\n\n\n/// @notice Add balance into Bank\nfunction addToBalance() public payable\n{\n    require(!_mutex && (userBalance[msg.sender] + msg.value) > userBalance[msg.sender],\n             \"You can't add balance.\");\n    _mutex=true;\n    userBalance[msg.sender] += msg.value;\n    _mutex=false;\n}\n\n\n/// @notice Withdraw total balance from Bank\nfunction withdrawBalance() public {\n    require(!_mutex && userBalance[msg.sender] > 0, \"You can't wirthdraw Balance.\");\n    _mutex=true;    \n\n    userBalance[msg.sender] = 0;\n    (bool success, ) = msg.sender.call{value : userBalance[msg.sender] }(\"Withdraw started\");\n    require(success, \"Transfer failed.\");\n\n    // *Start Alternate approach\n    //unit balance = userBalance[msg.Sender];\n    //userBalance[msg.Sender] = 0;\n    //msg.sender.transfer(balance);\n    // *End Alternate approach\n    \n    _mutex = false;\n}\n\n}",
  "sourcePath": "/home/shradhar/avem/contracts/Bank.sol",
  "compiler": {
    "name": "solc",
    "version": "0.7.0+commit.9e61f92b.Emscripten.clang"
  },
  "schemaVersion": "3.4.3",
  "updatedAt": "2022-03-10T02:36:23.607Z",
  "devdoc": {
    "author": "Shradha Rajmane",
    "details": "@notice This contract allows :               1. Get balance               2. Add balance into user account               3. Withdraw ALL balance from usr account",
    "kind": "dev",
    "methods": {
      "getBalance()": {
        "returns": {
          "balance": "The balance of the user"
        }
      }
    },
    "stateVariables": {
      "_mutex": {
        "details": "Lock userBalance to avoid concurrunt execution."
      },
      "userBalance": {
        "details": "Protect Bank user balance from other contracts."
      }
    },
    "title": "Bank Smart Contract",
    "version": 1
  },
  "userdoc": {
    "kind": "user",
    "methods": {
      "addToBalance()": {
        "notice": "Add balance into Bank"
      },
      "getBalance()": {
        "notice": "Get balance"
      },
      "withdrawBalance()": {
        "notice": "Withdraw total balance from Bank"
      }
    },
    "version": 1
  }
}