{
  "contractName": "Likable",
  "abi": [
    {
      "inputs": [],
      "name": "likes",
      "outputs": [
        {
          "internalType": "uint256",
          "name": "",
          "type": "uint256"
        }
      ],
      "stateMutability": "view",
      "type": "function"
    },
    {
      "inputs": [],
      "name": "remove",
      "outputs": [],
      "stateMutability": "nonpayable",
      "type": "function"
    },
    {
      "inputs": [],
      "name": "add",
      "outputs": [],
      "stateMutability": "nonpayable",
      "type": "function"
    },
    {
      "inputs": [
        {
          "internalType": "uint256",
          "name": "_likes",
          "type": "uint256"
        }
      ],
      "name": "setLikes",
      "outputs": [],
      "stateMutability": "nonpayable",
      "type": "function"
    },
    {
      "inputs": [],
      "name": "getLikes",
      "outputs": [
        {
          "internalType": "uint256",
          "name": "",
          "type": "uint256"
        }
      ],
      "stateMutability": "view",
      "type": "function"
    }
  ],
  "bytecode": "0x608060405234801561001057600080fd5b50610171806100206000396000f3fe608060405234801561001057600080fd5b50600436106100575760003560e01c80634f2be91f1461005c57806362a1c58314610066578063a7f4377914610084578063d1dc9bd81461008e578063de812c30146100ac575b600080fd5b6100646100da565b005b61006e610103565b6040518082815260200191505060405180910390f35b61008c61010c565b005b61009661012b565b6040518082815260200191505060405180910390f35b6100d8600480360360208110156100c257600080fd5b8101908080359060200190929190505050610131565b005b600060016000540190506000548111156101005760008081548092919060010191905055505b50565b60008054905090565b600080541115610129576000808154809291906001900391905055505b565b60005481565b806000819055505056fea264697066735822122018676b81bbabbdf0653e5ddaa6aee5de7c435328ce90c3ed14abdc4708e2ae2864736f6c63430007000033",
  "immutableReferences": {},
  "source": "//SPDX-License-Identifier: MIT\n//solhint-disable-next-line\npragma solidity 0.7.0; \n\n/**\n* @title UInteger Rollover Test Smart Contract\n*\n* @dev @notice UInt256 roll-over use cases  - \n*    Option 1. Rollover is needed in case of overflow or underflow.\n*    Option 2: Rollover is NOT needed in case of overflow and/or underflow. (e.g., customer balance).\n*    Further, Option 2 can be implemented using three approches: \n*       a. SafeMath for solidity versions any <= or > 0.8. [safemath is expensive function]\n*       b. Use solidity version >=0.8 which will handle rollover in case of overflow or underflow.\n*       c. Use solidity version of this contract (i.e. 0.7.0) and add explicit logic to check overflow or underflow.            \n*    Option 2.c,2.b and option 1 are implemented below. Becasue SafeMath is expensive function for this contract.\n*    Comments are used to represent Option 1 and option 2.b. \n* @author Shradha Rajmane\n*\n*/\n\n//Option 2.c\n\ncontract Likable {\nuint256 public likes;\nfunction remove() public {\n    if (likes > 0)  \n        likes --;\n}\nfunction add() public {\n    uint256 overflowtest = likes + 1;\n    if(overflowtest > likes) \n        likes ++;\n}\n\nfunction setLikes(uint256 _likes) public{\n    likes = _likes;\n}\nfunction getLikes() public view returns(uint256){\n    return likes;\n}\n}\n\n\n/// @notice @dev Option 1 and option 2.b\n/*\npragma solidity 0.8.0;\ncontract Likable {\nuint256 public likes;\nfunction remove() public {\n    //Option 1: Use unchecked if rollover is needed depending of use case\n    //unchecked{     \n        likes--;\n    //}\n \n}\nfunction add() public {\n    //unchecked{\n    likes++;\n    //}   \n}\n} \n*/\n",
  "sourcePath": "/home/shradhar/avem/contracts/Likable.sol",
  "compiler": {
    "name": "solc",
    "version": "0.7.0+commit.9e61f92b.Emscripten.clang"
  },
  "schemaVersion": "3.4.3",
  "updatedAt": "2022-03-10T02:53:48.914Z",
  "devdoc": {
    "author": "Shradha Rajmane",
    "details": "@notice UInt256 roll-over use cases  -     Option 1. Rollover is needed in case of overflow or underflow.    Option 2: Rollover is NOT needed in case of overflow and/or underflow. (e.g., customer balance).    Further, Option 2 can be implemented using three approches:        a. SafeMath for solidity versions any <= or > 0.8. [safemath is expensive function]       b. Use solidity version >=0.8 which will handle rollover in case of overflow or underflow.       c. Use solidity version of this contract (i.e. 0.7.0) and add explicit logic to check overflow or underflow.                Option 2.c,2.b and option 1 are implemented below. Becasue SafeMath is expensive function for this contract.    Comments are used to represent Option 1 and option 2.b. ",
    "kind": "dev",
    "methods": {},
    "title": "UInteger Rollover Test Smart Contract",
    "version": 1
  },
  "userdoc": {
    "kind": "user",
    "methods": {},
    "version": 1
  }
}